{
  "contractName": "Test",
  "abi": [
    {
      "anonymous": false,
      "inputs": [
        {
          "indexed": true,
          "internalType": "address",
          "name": "_from",
          "type": "address"
        },
        {
          "indexed": false,
          "internalType": "uint256",
          "name": "number",
          "type": "uint256"
        }
      ],
      "name": "NumberHasChanged",
      "type": "event"
    },
    {
      "anonymous": false,
      "inputs": [
        {
          "indexed": true,
          "internalType": "address",
          "name": "_from",
          "type": "address"
        },
        {
          "indexed": false,
          "internalType": "string",
          "name": "str",
          "type": "string"
        }
      ],
      "name": "StringHasChanged",
      "type": "event"
    },
    {
      "inputs": [],
      "name": "get",
      "outputs": [
        {
          "internalType": "uint256",
          "name": "",
          "type": "uint256"
        }
      ],
      "stateMutability": "view",
      "type": "function",
      "constant": true
    },
    {
      "inputs": [
        {
          "internalType": "uint256",
          "name": "_number",
          "type": "uint256"
        }
      ],
      "name": "set",
      "outputs": [],
      "stateMutability": "nonpayable",
      "type": "function"
    },
    {
      "inputs": [],
      "name": "getString",
      "outputs": [
        {
          "internalType": "string",
          "name": "",
          "type": "string"
        }
      ],
      "stateMutability": "view",
      "type": "function",
      "constant": true
    },
    {
      "inputs": [
        {
          "internalType": "string",
          "name": "_str",
          "type": "string"
        }
      ],
      "name": "setString",
      "outputs": [],
      "stateMutability": "nonpayable",
      "type": "function"
    }
  ],
  "bytecode": "0x608060405234801561001057600080fd5b50610633806100206000396000f3fe608060405234801561001057600080fd5b506004361061004c5760003560e01c806360fe47b1146100515780636d4ce63c1461006d5780637fcaf6661461008b57806389ea642f146100a7575b600080fd5b61006b6004803603810190610066919061030d565b6100c5565b005b61007561011d565b6040516100829190610349565b60405180910390f35b6100a560048036038101906100a091906104aa565b610126565b005b6100af61018e565b6040516100bc919061057b565b60405180910390f35b806000819055503373ffffffffffffffffffffffffffffffffffffffff167fd043061148e4334bf925c76c10f309fe0f69a3617de75710a5600ae4a0cb9aa9826040516101129190610349565b60405180910390a250565b60008054905090565b806001908051906020019061013c929190610220565b503373ffffffffffffffffffffffffffffffffffffffff167f20d5b59be6690b7c1e9e8988d8d496f144802353f24c6a414ebb556d2ada252282604051610183919061057b565b60405180910390a250565b60606001805461019d906105cc565b80601f01602080910402602001604051908101604052809291908181526020018280546101c9906105cc565b80156102165780601f106101eb57610100808354040283529160200191610216565b820191906000526020600020905b8154815290600101906020018083116101f957829003601f168201915b5050505050905090565b82805461022c906105cc565b90600052602060002090601f01602090048101928261024e5760008555610295565b82601f1061026757805160ff1916838001178555610295565b82800160010185558215610295579182015b82811115610294578251825591602001919060010190610279565b5b5090506102a291906102a6565b5090565b5b808211156102bf5760008160009055506001016102a7565b5090565b6000604051905090565b600080fd5b600080fd5b6000819050919050565b6102ea816102d7565b81146102f557600080fd5b50565b600081359050610307816102e1565b92915050565b600060208284031215610323576103226102cd565b5b6000610331848285016102f8565b91505092915050565b610343816102d7565b82525050565b600060208201905061035e600083018461033a565b92915050565b600080fd5b600080fd5b6000601f19601f8301169050919050565b7f4e487b7100000000000000000000000000000000000000000000000000000000600052604160045260246000fd5b6103b78261036e565b810181811067ffffffffffffffff821117156103d6576103d561037f565b5b80604052505050565b60006103e96102c3565b90506103f582826103ae565b919050565b600067ffffffffffffffff8211156104155761041461037f565b5b61041e8261036e565b9050602081019050919050565b82818337600083830152505050565b600061044d610448846103fa565b6103df565b90508281526020810184848401111561046957610468610369565b5b61047484828561042b565b509392505050565b600082601f83011261049157610490610364565b5b81356104a184826020860161043a565b91505092915050565b6000602082840312156104c0576104bf6102cd565b5b600082013567ffffffffffffffff8111156104de576104dd6102d2565b5b6104ea8482850161047c565b91505092915050565b600081519050919050565b600082825260208201905092915050565b60005b8381101561052d578082015181840152602081019050610512565b8381111561053c576000848401525b50505050565b600061054d826104f3565b61055781856104fe565b935061056781856020860161050f565b6105708161036e565b840191505092915050565b600060208201905081810360008301526105958184610542565b905092915050565b7f4e487b7100000000000000000000000000000000000000000000000000000000600052602260045260246000fd5b600060028204905060018216806105e457607f821691505b6020821081036105f7576105f661059d565b5b5091905056fea26469706673582212208b613f6a5623f7154943499c0c6875430638a252976db087ba5ae85424a5c23a64736f6c634300080d0033",
  "immutableReferences": {},
  "source": "// SPDX-License-Identifier: MIT\npragma solidity 0.8.13;\n\ncontract Test {\n    uint256 number;\n    string str;\n\n    event StringHasChanged(address indexed _from, string str);\n    event NumberHasChanged(address indexed _from, uint256 number);\n\n    function get() public view returns (uint256) {\n        return number;\n    }\n\n    function set(uint256 _number) public {\n        number = _number;\n        emit NumberHasChanged(msg.sender, _number);\n    }\n\n    function getString() public view returns (string memory) {\n        return str;\n    }\n\n    function setString(string memory _str) public {\n        str = _str;\n        emit StringHasChanged(msg.sender, _str);\n    }\n}\n",
  "sourcePath": "/Users/anthony/Documents/Perso/Development/blockchain/web3js/truffle/contracts/Test.sol",
  "compiler": {
    "name": "solc",
    "version": "0.8.13+commit.abaa5c0e.Emscripten.clang"
  },
  "schemaVersion": "3.4.7",
  "updatedAt": "2022-04-22T09:06:05.877Z",
  "networkType": "ethereum",
  "devdoc": {
    "kind": "dev",
    "methods": {},
    "version": 1
  },
  "userdoc": {
    "kind": "user",
    "methods": {},
    "version": 1
  }
}