{
  "contractName": "Player",
  "abi": [
    {
      "anonymous": false,
      "inputs": [
        {
          "indexed": true,
          "internalType": "address",
          "name": "_from",
          "type": "address"
        },
        {
          "components": [
            {
              "internalType": "string",
              "name": "name",
              "type": "string"
            },
            {
              "internalType": "uint256",
              "name": "life",
              "type": "uint256"
            },
            {
              "internalType": "uint256",
              "name": "strength",
              "type": "uint256"
            }
          ],
          "indexed": false,
          "internalType": "struct Player.StatStruct",
          "name": "player",
          "type": "tuple"
        }
      ],
      "name": "PlayerCreated",
      "type": "event"
    },
    {
      "inputs": [
        {
          "internalType": "string",
          "name": "name",
          "type": "string"
        },
        {
          "internalType": "uint256",
          "name": "life",
          "type": "uint256"
        },
        {
          "internalType": "uint256",
          "name": "strength",
          "type": "uint256"
        }
      ],
      "name": "create",
      "outputs": [],
      "stateMutability": "nonpayable",
      "type": "function"
    },
    {
      "inputs": [],
      "name": "getTotalPlayers",
      "outputs": [
        {
          "internalType": "uint256",
          "name": "",
          "type": "uint256"
        }
      ],
      "stateMutability": "view",
      "type": "function",
      "constant": true
    },
    {
      "inputs": [
        {
          "internalType": "uint256",
          "name": "index",
          "type": "uint256"
        }
      ],
      "name": "getPlayerById",
      "outputs": [
        {
          "components": [
            {
              "internalType": "string",
              "name": "name",
              "type": "string"
            },
            {
              "internalType": "uint256",
              "name": "life",
              "type": "uint256"
            },
            {
              "internalType": "uint256",
              "name": "strength",
              "type": "uint256"
            }
          ],
          "internalType": "struct Player.StatStruct",
          "name": "",
          "type": "tuple"
        }
      ],
      "stateMutability": "view",
      "type": "function",
      "constant": true
    },
    {
      "inputs": [],
      "name": "getPlayers",
      "outputs": [
        {
          "components": [
            {
              "internalType": "string",
              "name": "name",
              "type": "string"
            },
            {
              "internalType": "uint256",
              "name": "life",
              "type": "uint256"
            },
            {
              "internalType": "uint256",
              "name": "strength",
              "type": "uint256"
            }
          ],
          "internalType": "struct Player.StatStruct[]",
          "name": "",
          "type": "tuple[]"
        }
      ],
      "stateMutability": "view",
      "type": "function",
      "constant": true
    },
    {
      "inputs": [
        {
          "internalType": "uint256",
          "name": "index",
          "type": "uint256"
        }
      ],
      "name": "hit",
      "outputs": [],
      "stateMutability": "nonpayable",
      "type": "function"
    },
    {
      "inputs": [
        {
          "internalType": "uint256",
          "name": "index",
          "type": "uint256"
        }
      ],
      "name": "remove",
      "outputs": [],
      "stateMutability": "nonpayable",
      "type": "function"
    }
  ],
  "bytecode": "0x608060405234801561001057600080fd5b50610c9c806100206000396000f3fe608060405234801561001057600080fd5b50600436106100625760003560e01c80631ace5d86146100675780634529cae7146100975780634cc82215146100b55780638b5b9ccc146100d1578063cda3c499146100ef578063ebf6e91d1461010b575b600080fd5b610081600480360381019061007c91906106fc565b610127565b60405161008e9190610821565b60405180910390f35b61009f610209565b6040516100ac9190610852565b60405180910390f35b6100cf60048036038101906100ca91906106fc565b610215565b005b6100d96102ef565b6040516100e6919061097f565b60405180910390f35b61010960048036038101906101049190610ad6565b6103f4565b005b610125600480360381019061012091906106fc565b6104c6565b005b61012f610521565b6000828154811061014357610142610b45565b5b906000526020600020906003020160405180606001604052908160008201805461016c90610ba3565b80601f016020809104026020016040519081016040528092919081815260200182805461019890610ba3565b80156101e55780601f106101ba576101008083540402835291602001916101e5565b820191906000526020600020905b8154815290600101906020018083116101c857829003601f168201915b50505050508152602001600182015481526020016002820154815250509050919050565b60008080549050905090565b600060016000805490506102299190610c03565b8154811061023a57610239610b45565b5b90600052602060002090600302016000828154811061025c5761025b610b45565b5b9060005260206000209060030201600082018160000190805461027e90610ba3565b610289929190610542565b50600182015481600101556002820154816002015590505060008054806102b3576102b2610c37565b5b6001900381819060005260206000209060030201600080820160006102d891906105cf565b600182016000905560028201600090555050905550565b60606000805480602002602001604051908101604052809291908181526020016000905b828210156103eb578382906000526020600020906003020160405180606001604052908160008201805461034690610ba3565b80601f016020809104026020016040519081016040528092919081815260200182805461037290610ba3565b80156103bf5780601f10610394576101008083540402835291602001916103bf565b820191906000526020600020905b8154815290600101906020018083116103a257829003601f168201915b505050505081526020016001820154815260200160028201548152505081526020019060010190610313565b50505050905090565b600060405180606001604052808581526020018481526020018381525090506000819080600181540180825580915050600190039060005260206000209060030201600090919091909150600082015181600001908051906020019061045b92919061060f565b50602082015181600101556040820151816002015550503373ffffffffffffffffffffffffffffffffffffffff167f9e5dbb9537184e5b1690c4ff06f6e061bf7e9b1e8833213da5b2884970b98986826040516104b89190610821565b60405180910390a250505050565b60008082815481106104db576104da610b45565b5b9060005260206000209060030201905060018160010160008282546105009190610c03565b92505081905550600081600101541161051d5761051c82610215565b5b5050565b60405180606001604052806060815260200160008152602001600081525090565b82805461054e90610ba3565b90600052602060002090601f01602090048101928261057057600085556105be565b82601f1061058157805485556105be565b828001600101855582156105be57600052602060002091601f016020900482015b828111156105bd5782548255916001019190600101906105a2565b5b5090506105cb9190610695565b5090565b5080546105db90610ba3565b6000825580601f106105ed575061060c565b601f01602090049060005260206000209081019061060b9190610695565b5b50565b82805461061b90610ba3565b90600052602060002090601f01602090048101928261063d5760008555610684565b82601f1061065657805160ff1916838001178555610684565b82800160010185558215610684579182015b82811115610683578251825591602001919060010190610668565b5b5090506106919190610695565b5090565b5b808211156106ae576000816000905550600101610696565b5090565b6000604051905090565b600080fd5b600080fd5b6000819050919050565b6106d9816106c6565b81146106e457600080fd5b50565b6000813590506106f6816106d0565b92915050565b600060208284031215610712576107116106bc565b5b6000610720848285016106e7565b91505092915050565b600081519050919050565b600082825260208201905092915050565b60005b83811015610763578082015181840152602081019050610748565b83811115610772576000848401525b50505050565b6000601f19601f8301169050919050565b600061079482610729565b61079e8185610734565b93506107ae818560208601610745565b6107b781610778565b840191505092915050565b6107cb816106c6565b82525050565b600060608301600083015184820360008601526107ee8282610789565b915050602083015161080360208601826107c2565b50604083015161081660408601826107c2565b508091505092915050565b6000602082019050818103600083015261083b81846107d1565b905092915050565b61084c816106c6565b82525050565b60006020820190506108676000830184610843565b92915050565b600081519050919050565b600082825260208201905092915050565b6000819050602082019050919050565b600060608301600083015184820360008601526108b68282610789565b91505060208301516108cb60208601826107c2565b5060408301516108de60408601826107c2565b508091505092915050565b60006108f58383610899565b905092915050565b6000602082019050919050565b60006109158261086d565b61091f8185610878565b93508360208202850161093185610889565b8060005b8581101561096d578484038952815161094e85826108e9565b9450610959836108fd565b925060208a01995050600181019050610935565b50829750879550505050505092915050565b60006020820190508181036000830152610999818461090a565b905092915050565b600080fd5b600080fd5b7f4e487b7100000000000000000000000000000000000000000000000000000000600052604160045260246000fd5b6109e382610778565b810181811067ffffffffffffffff82111715610a0257610a016109ab565b5b80604052505050565b6000610a156106b2565b9050610a2182826109da565b919050565b600067ffffffffffffffff821115610a4157610a406109ab565b5b610a4a82610778565b9050602081019050919050565b82818337600083830152505050565b6000610a79610a7484610a26565b610a0b565b905082815260208101848484011115610a9557610a946109a6565b5b610aa0848285610a57565b509392505050565b600082601f830112610abd57610abc6109a1565b5b8135610acd848260208601610a66565b91505092915050565b600080600060608486031215610aef57610aee6106bc565b5b600084013567ffffffffffffffff811115610b0d57610b0c6106c1565b5b610b1986828701610aa8565b9350506020610b2a868287016106e7565b9250506040610b3b868287016106e7565b9150509250925092565b7f4e487b7100000000000000000000000000000000000000000000000000000000600052603260045260246000fd5b7f4e487b7100000000000000000000000000000000000000000000000000000000600052602260045260246000fd5b60006002820490506001821680610bbb57607f821691505b602082108103610bce57610bcd610b74565b5b50919050565b7f4e487b7100000000000000000000000000000000000000000000000000000000600052601160045260246000fd5b6000610c0e826106c6565b9150610c19836106c6565b925082821015610c2c57610c2b610bd4565b5b828203905092915050565b7f4e487b7100000000000000000000000000000000000000000000000000000000600052603160045260246000fdfea2646970667358221220e7abd0d320a5a21475de0a902063dd6838cad91638d6e86e5970eee23598c7c464736f6c634300080d0033",
  "immutableReferences": {},
  "source": "// SPDX-License-Identifier: MIT\npragma solidity 0.8.13;\n\ncontract Player {\n    StatStruct[] private players;\n\n    struct StatStruct {\n        string name;\n        uint256 life;\n        uint256 strength;\n    }\n\n    event PlayerCreated(address indexed _from, StatStruct player);\n\n    function create(\n        string memory name,\n        uint256 life,\n        uint256 strength\n    ) public {\n        StatStruct memory newPlayer = StatStruct(name, life, strength);\n        players.push(newPlayer);\n\n        emit PlayerCreated(msg.sender, newPlayer);\n    }\n\n    function getTotalPlayers() public view returns (uint256) {\n        return players.length;\n    }\n\n    function getPlayerById(uint256 index)\n        public\n        view\n        returns (StatStruct memory)\n    {\n        return players[index];\n    }\n\n    function getPlayers() public view returns (StatStruct[] memory) {\n        return players;\n    }\n\n    /**\n     * Fight.\n     */\n    function hit(uint256 index) public {\n        StatStruct storage player = players[index];\n        player.life -= 1;\n\n        if (player.life <= 0) {\n            remove(index);\n        }\n    }\n\n    function remove(uint256 index) public {\n        players[index] = players[players.length - 1];\n        players.pop();\n    }\n}\n",
  "sourcePath": "/Users/anthony/Documents/Perso/Development/blockchain/web3js/truffle/contracts/Player.sol",
  "compiler": {
    "name": "solc",
    "version": "0.8.13+commit.abaa5c0e.Emscripten.clang"
  },
  "schemaVersion": "3.4.7",
  "updatedAt": "2022-04-22T12:37:42.775Z",
  "networkType": "ethereum",
  "devdoc": {
    "kind": "dev",
    "methods": {},
    "version": 1
  },
  "userdoc": {
    "kind": "user",
    "methods": {
      "hit(uint256)": {
        "notice": "Fight."
      }
    },
    "version": 1
  }
}