{
  "contractName": "Player",
  "abi": [
    {
      "anonymous": false,
      "inputs": [
        {
          "indexed": true,
          "internalType": "address",
          "name": "_from",
          "type": "address"
        },
        {
          "components": [
            {
              "internalType": "string",
              "name": "name",
              "type": "string"
            },
            {
              "internalType": "uint256",
              "name": "life",
              "type": "uint256"
            },
            {
              "internalType": "uint256",
              "name": "strength",
              "type": "uint256"
            }
          ],
          "indexed": false,
          "internalType": "struct Player.PlayerStruct",
          "name": "player",
          "type": "tuple"
        }
      ],
      "name": "PlayerCreated",
      "type": "event"
    },
    {
      "inputs": [
        {
          "internalType": "string",
          "name": "name",
          "type": "string"
        },
        {
          "internalType": "uint256",
          "name": "life",
          "type": "uint256"
        },
        {
          "internalType": "uint256",
          "name": "strength",
          "type": "uint256"
        }
      ],
      "name": "create",
      "outputs": [],
      "stateMutability": "nonpayable",
      "type": "function"
    },
    {
      "inputs": [],
      "name": "getTotalPlayers",
      "outputs": [
        {
          "internalType": "uint256",
          "name": "",
          "type": "uint256"
        }
      ],
      "stateMutability": "view",
      "type": "function",
      "constant": true
    },
    {
      "inputs": [
        {
          "internalType": "uint256",
          "name": "index",
          "type": "uint256"
        }
      ],
      "name": "getPlayerById",
      "outputs": [
        {
          "components": [
            {
              "internalType": "string",
              "name": "name",
              "type": "string"
            },
            {
              "internalType": "uint256",
              "name": "life",
              "type": "uint256"
            },
            {
              "internalType": "uint256",
              "name": "strength",
              "type": "uint256"
            }
          ],
          "internalType": "struct Player.PlayerStruct",
          "name": "",
          "type": "tuple"
        }
      ],
      "stateMutability": "view",
      "type": "function",
      "constant": true
    },
    {
      "inputs": [
        {
          "internalType": "uint256",
          "name": "index",
          "type": "uint256"
        }
      ],
      "name": "hit",
      "outputs": [
        {
          "components": [
            {
              "internalType": "string",
              "name": "name",
              "type": "string"
            },
            {
              "internalType": "uint256",
              "name": "life",
              "type": "uint256"
            },
            {
              "internalType": "uint256",
              "name": "strength",
              "type": "uint256"
            }
          ],
          "internalType": "struct Player.PlayerStruct",
          "name": "",
          "type": "tuple"
        }
      ],
      "stateMutability": "nonpayable",
      "type": "function"
    }
  ],
  "bytecode": "0x608060405234801561001057600080fd5b50610885806100206000396000f3fe608060405234801561001057600080fd5b506004361061004c5760003560e01c80631ace5d86146100515780634529cae714610081578063cda3c4991461009f578063ebf6e91d146100bb575b600080fd5b61006b60048036038101906100669190610448565b6100eb565b604051610078919061056d565b60405180910390f35b6100896101cd565b604051610096919061059e565b60405180910390f35b6100b960048036038101906100b491906106ee565b6101d9565b005b6100d560048036038101906100d09190610448565b6102ab565b6040516100e2919061056d565b60405180910390f35b6100f361033a565b600082815481106101075761010661075d565b5b9060005260206000209060030201604051806060016040529081600082018054610130906107bb565b80601f016020809104026020016040519081016040528092919081815260200182805461015c906107bb565b80156101a95780601f1061017e576101008083540402835291602001916101a9565b820191906000526020600020905b81548152906001019060200180831161018c57829003601f168201915b50505050508152602001600182015481526020016002820154815250509050919050565b60008080549050905090565b600060405180606001604052808581526020018481526020018381525090506000819080600181540180825580915050600190039060005260206000209060030201600090919091909150600082015181600001908051906020019061024092919061035b565b50602082015181600101556040820151816002015550503373ffffffffffffffffffffffffffffffffffffffff167f9e5dbb9537184e5b1690c4ff06f6e061bf7e9b1e8833213da5b2884970b989868260405161029d919061056d565b60405180910390a250505050565b6102b361033a565b60006102be836100eb565b90506001816020018181516102d3919061081b565b9150818152505080600084815481106102ef576102ee61075d565b5b9060005260206000209060030201600082015181600001908051906020019061031992919061035b565b50602082015181600101556040820151816002015590505080915050919050565b60405180606001604052806060815260200160008152602001600081525090565b828054610367906107bb565b90600052602060002090601f01602090048101928261038957600085556103d0565b82601f106103a257805160ff19168380011785556103d0565b828001600101855582156103d0579182015b828111156103cf5782518255916020019190600101906103b4565b5b5090506103dd91906103e1565b5090565b5b808211156103fa5760008160009055506001016103e2565b5090565b6000604051905090565b600080fd5b600080fd5b6000819050919050565b61042581610412565b811461043057600080fd5b50565b6000813590506104428161041c565b92915050565b60006020828403121561045e5761045d610408565b5b600061046c84828501610433565b91505092915050565b600081519050919050565b600082825260208201905092915050565b60005b838110156104af578082015181840152602081019050610494565b838111156104be576000848401525b50505050565b6000601f19601f8301169050919050565b60006104e082610475565b6104ea8185610480565b93506104fa818560208601610491565b610503816104c4565b840191505092915050565b61051781610412565b82525050565b6000606083016000830151848203600086015261053a82826104d5565b915050602083015161054f602086018261050e565b506040830151610562604086018261050e565b508091505092915050565b60006020820190508181036000830152610587818461051d565b905092915050565b61059881610412565b82525050565b60006020820190506105b3600083018461058f565b92915050565b600080fd5b600080fd5b7f4e487b7100000000000000000000000000000000000000000000000000000000600052604160045260246000fd5b6105fb826104c4565b810181811067ffffffffffffffff8211171561061a576106196105c3565b5b80604052505050565b600061062d6103fe565b905061063982826105f2565b919050565b600067ffffffffffffffff821115610659576106586105c3565b5b610662826104c4565b9050602081019050919050565b82818337600083830152505050565b600061069161068c8461063e565b610623565b9050828152602081018484840111156106ad576106ac6105be565b5b6106b884828561066f565b509392505050565b600082601f8301126106d5576106d46105b9565b5b81356106e584826020860161067e565b91505092915050565b60008060006060848603121561070757610706610408565b5b600084013567ffffffffffffffff8111156107255761072461040d565b5b610731868287016106c0565b935050602061074286828701610433565b925050604061075386828701610433565b9150509250925092565b7f4e487b7100000000000000000000000000000000000000000000000000000000600052603260045260246000fd5b7f4e487b7100000000000000000000000000000000000000000000000000000000600052602260045260246000fd5b600060028204905060018216806107d357607f821691505b6020821081036107e6576107e561078c565b5b50919050565b7f4e487b7100000000000000000000000000000000000000000000000000000000600052601160045260246000fd5b600061082682610412565b915061083183610412565b925082821015610844576108436107ec565b5b82820390509291505056fea2646970667358221220e66850024ecd4e350aaaa93a440a571bc8bbf8295c8bde1f19a9515a5432ff1564736f6c634300080d0033",
  "immutableReferences": {},
  "source": "// SPDX-License-Identifier: MIT\npragma solidity 0.8.13;\n\ncontract Player {\n    PlayerStruct[] private players;\n\n    struct PlayerStruct {\n        string name;\n        uint256 life;\n        uint256 strength;\n    }\n\n    event PlayerCreated(address indexed _from, PlayerStruct player);\n\n    function create(\n        string memory name,\n        uint256 life,\n        uint256 strength\n    ) public {\n        PlayerStruct memory newPlayer = PlayerStruct(name, life, strength);\n        players.push(newPlayer);\n\n        emit PlayerCreated(msg.sender, newPlayer);\n    }\n\n    function getTotalPlayers() public view returns (uint256) {\n        return players.length;\n    }\n\n    function getPlayerById(uint256 index)\n        public\n        view\n        returns (PlayerStruct memory)\n    {\n        return players[index];\n    }\n\n    /**\n     * Fight.\n     */\n    function hit(uint256 index) public returns (PlayerStruct memory) {\n        PlayerStruct memory player = getPlayerById(index);\n        player.life -= 1;\n        players[index] = player;\n        return player;\n    }\n}\n",
  "sourcePath": "/Users/anthony/Documents/Perso/Development/blockchain/web3js/truffle/contracts/Player.sol",
  "compiler": {
    "name": "solc",
    "version": "0.8.13+commit.abaa5c0e.Emscripten.clang"
  },
  "schemaVersion": "3.4.7",
  "updatedAt": "2022-04-22T10:06:13.444Z",
  "networkType": "ethereum",
  "devdoc": {
    "kind": "dev",
    "methods": {},
    "version": 1
  },
  "userdoc": {
    "kind": "user",
    "methods": {
      "hit(uint256)": {
        "notice": "Fight."
      }
    },
    "version": 1
  }
}