{
  "contractName": "Player",
  "abi": [
    {
      "anonymous": false,
      "inputs": [
        {
          "indexed": true,
          "internalType": "address",
          "name": "_from",
          "type": "address"
        },
        {
          "components": [
            {
              "internalType": "string",
              "name": "name",
              "type": "string"
            },
            {
              "internalType": "uint256",
              "name": "life",
              "type": "uint256"
            },
            {
              "internalType": "uint256",
              "name": "strength",
              "type": "uint256"
            }
          ],
          "indexed": false,
          "internalType": "struct Player.PlayerStruct",
          "name": "player",
          "type": "tuple"
        }
      ],
      "name": "PlayerCreated",
      "type": "event"
    },
    {
      "inputs": [
        {
          "internalType": "string",
          "name": "name",
          "type": "string"
        },
        {
          "internalType": "uint256",
          "name": "life",
          "type": "uint256"
        },
        {
          "internalType": "uint256",
          "name": "strength",
          "type": "uint256"
        }
      ],
      "name": "create",
      "outputs": [],
      "stateMutability": "nonpayable",
      "type": "function"
    },
    {
      "inputs": [],
      "name": "getTotalPlayers",
      "outputs": [
        {
          "internalType": "uint256",
          "name": "",
          "type": "uint256"
        }
      ],
      "stateMutability": "view",
      "type": "function",
      "constant": true
    },
    {
      "inputs": [
        {
          "internalType": "uint256",
          "name": "index",
          "type": "uint256"
        }
      ],
      "name": "getPlayerById",
      "outputs": [
        {
          "components": [
            {
              "internalType": "string",
              "name": "name",
              "type": "string"
            },
            {
              "internalType": "uint256",
              "name": "life",
              "type": "uint256"
            },
            {
              "internalType": "uint256",
              "name": "strength",
              "type": "uint256"
            }
          ],
          "internalType": "struct Player.PlayerStruct",
          "name": "",
          "type": "tuple"
        }
      ],
      "stateMutability": "view",
      "type": "function",
      "constant": true
    },
    {
      "inputs": [
        {
          "internalType": "uint256",
          "name": "index",
          "type": "uint256"
        }
      ],
      "name": "hit",
      "outputs": [],
      "stateMutability": "nonpayable",
      "type": "function"
    },
    {
      "inputs": [
        {
          "internalType": "uint256",
          "name": "index",
          "type": "uint256"
        }
      ],
      "name": "remove",
      "outputs": [],
      "stateMutability": "nonpayable",
      "type": "function"
    }
  ],
  "bytecode": "0x608060405234801561001057600080fd5b50610a3a806100206000396000f3fe608060405234801561001057600080fd5b50600436106100575760003560e01c80631ace5d861461005c5780634529cae71461008c5780634cc82215146100aa578063cda3c499146100c6578063ebf6e91d146100e2575b600080fd5b610076600480360381019061007191906105ce565b6100fe565b60405161008391906106f3565b60405180910390f35b6100946101e0565b6040516100a19190610724565b60405180910390f35b6100c460048036038101906100bf91906105ce565b6101ec565b005b6100e060048036038101906100db9190610874565b6102c6565b005b6100fc60048036038101906100f791906105ce565b610398565b005b6101066103f3565b6000828154811061011a576101196108e3565b5b906000526020600020906003020160405180606001604052908160008201805461014390610941565b80601f016020809104026020016040519081016040528092919081815260200182805461016f90610941565b80156101bc5780601f10610191576101008083540402835291602001916101bc565b820191906000526020600020905b81548152906001019060200180831161019f57829003601f168201915b50505050508152602001600182015481526020016002820154815250509050919050565b60008080549050905090565b6000600160008054905061020091906109a1565b81548110610211576102106108e3565b5b906000526020600020906003020160008281548110610233576102326108e3565b5b9060005260206000209060030201600082018160000190805461025590610941565b610260929190610414565b506001820154816001015560028201548160020155905050600080548061028a576102896109d5565b5b6001900381819060005260206000209060030201600080820160006102af91906104a1565b600182016000905560028201600090555050905550565b600060405180606001604052808581526020018481526020018381525090506000819080600181540180825580915050600190039060005260206000209060030201600090919091909150600082015181600001908051906020019061032d9291906104e1565b50602082015181600101556040820151816002015550503373ffffffffffffffffffffffffffffffffffffffff167f9e5dbb9537184e5b1690c4ff06f6e061bf7e9b1e8833213da5b2884970b989868260405161038a91906106f3565b60405180910390a250505050565b60008082815481106103ad576103ac6108e3565b5b9060005260206000209060030201905060018160010160008282546103d291906109a1565b9250508190555060008160010154116103ef576103ee826101ec565b5b5050565b60405180606001604052806060815260200160008152602001600081525090565b82805461042090610941565b90600052602060002090601f0160209004810192826104425760008555610490565b82601f106104535780548555610490565b8280016001018555821561049057600052602060002091601f016020900482015b8281111561048f578254825591600101919060010190610474565b5b50905061049d9190610567565b5090565b5080546104ad90610941565b6000825580601f106104bf57506104de565b601f0160209004906000526020600020908101906104dd9190610567565b5b50565b8280546104ed90610941565b90600052602060002090601f01602090048101928261050f5760008555610556565b82601f1061052857805160ff1916838001178555610556565b82800160010185558215610556579182015b8281111561055557825182559160200191906001019061053a565b5b5090506105639190610567565b5090565b5b80821115610580576000816000905550600101610568565b5090565b6000604051905090565b600080fd5b600080fd5b6000819050919050565b6105ab81610598565b81146105b657600080fd5b50565b6000813590506105c8816105a2565b92915050565b6000602082840312156105e4576105e361058e565b5b60006105f2848285016105b9565b91505092915050565b600081519050919050565b600082825260208201905092915050565b60005b8381101561063557808201518184015260208101905061061a565b83811115610644576000848401525b50505050565b6000601f19601f8301169050919050565b6000610666826105fb565b6106708185610606565b9350610680818560208601610617565b6106898161064a565b840191505092915050565b61069d81610598565b82525050565b600060608301600083015184820360008601526106c0828261065b565b91505060208301516106d56020860182610694565b5060408301516106e86040860182610694565b508091505092915050565b6000602082019050818103600083015261070d81846106a3565b905092915050565b61071e81610598565b82525050565b60006020820190506107396000830184610715565b92915050565b600080fd5b600080fd5b7f4e487b7100000000000000000000000000000000000000000000000000000000600052604160045260246000fd5b6107818261064a565b810181811067ffffffffffffffff821117156107a05761079f610749565b5b80604052505050565b60006107b3610584565b90506107bf8282610778565b919050565b600067ffffffffffffffff8211156107df576107de610749565b5b6107e88261064a565b9050602081019050919050565b82818337600083830152505050565b6000610817610812846107c4565b6107a9565b90508281526020810184848401111561083357610832610744565b5b61083e8482856107f5565b509392505050565b600082601f83011261085b5761085a61073f565b5b813561086b848260208601610804565b91505092915050565b60008060006060848603121561088d5761088c61058e565b5b600084013567ffffffffffffffff8111156108ab576108aa610593565b5b6108b786828701610846565b93505060206108c8868287016105b9565b92505060406108d9868287016105b9565b9150509250925092565b7f4e487b7100000000000000000000000000000000000000000000000000000000600052603260045260246000fd5b7f4e487b7100000000000000000000000000000000000000000000000000000000600052602260045260246000fd5b6000600282049050600182168061095957607f821691505b60208210810361096c5761096b610912565b5b50919050565b7f4e487b7100000000000000000000000000000000000000000000000000000000600052601160045260246000fd5b60006109ac82610598565b91506109b783610598565b9250828210156109ca576109c9610972565b5b828203905092915050565b7f4e487b7100000000000000000000000000000000000000000000000000000000600052603160045260246000fdfea26469706673582212209ae3d0b03fef4d04c418497067bef57fccec07c8bf9609e827db164b1f9f1cdd64736f6c634300080d0033",
  "immutableReferences": {},
  "source": "// SPDX-License-Identifier: MIT\npragma solidity 0.8.13;\n\ncontract Player {\n    PlayerStruct[] private players;\n\n    struct PlayerStruct {\n        string name;\n        uint256 life;\n        uint256 strength;\n    }\n\n    event PlayerCreated(address indexed _from, PlayerStruct player);\n\n    function create(\n        string memory name,\n        uint256 life,\n        uint256 strength\n    ) public {\n        PlayerStruct memory newPlayer = PlayerStruct(name, life, strength);\n        players.push(newPlayer);\n\n        emit PlayerCreated(msg.sender, newPlayer);\n    }\n\n    function getTotalPlayers() public view returns (uint256) {\n        return players.length;\n    }\n\n    function getPlayerById(uint256 index)\n        public\n        view\n        returns (PlayerStruct memory)\n    {\n        return players[index];\n    }\n\n    /**\n     * Fight.\n     */\n    function hit(uint256 index) public {\n        PlayerStruct storage player = players[index];\n        player.life -= 1;\n        // players[index] = player;\n\n        if (player.life <= 0) {\n            remove(index);\n        }\n    }\n\n    function remove(uint256 index) public {\n        players[index] = players[players.length - 1];\n        players.pop();\n    }\n}\n",
  "sourcePath": "/Users/anthony/Documents/Perso/Development/blockchain/web3js/truffle/contracts/Player.sol",
  "compiler": {
    "name": "solc",
    "version": "0.8.13+commit.abaa5c0e.Emscripten.clang"
  },
  "schemaVersion": "3.4.7",
  "updatedAt": "2022-04-22T12:23:15.538Z",
  "networkType": "ethereum",
  "devdoc": {
    "kind": "dev",
    "methods": {},
    "version": 1
  },
  "userdoc": {
    "kind": "user",
    "methods": {
      "hit(uint256)": {
        "notice": "Fight."
      }
    },
    "version": 1
  }
}