{
  "contractName": "Test",
  "abi": [
    {
      "inputs": [],
      "name": "get",
      "outputs": [
        {
          "internalType": "uint256",
          "name": "",
          "type": "uint256"
        }
      ],
      "stateMutability": "view",
      "type": "function",
      "constant": true
    },
    {
      "inputs": [
        {
          "internalType": "uint256",
          "name": "_number",
          "type": "uint256"
        }
      ],
      "name": "set",
      "outputs": [],
      "stateMutability": "nonpayable",
      "type": "function"
    },
    {
      "inputs": [],
      "name": "getString",
      "outputs": [
        {
          "internalType": "string",
          "name": "",
          "type": "string"
        }
      ],
      "stateMutability": "view",
      "type": "function",
      "constant": true
    },
    {
      "inputs": [
        {
          "internalType": "string",
          "name": "_str",
          "type": "string"
        }
      ],
      "name": "setString",
      "outputs": [],
      "stateMutability": "nonpayable",
      "type": "function"
    }
  ],
  "bytecode": "0x608060405234801561001057600080fd5b50610597806100206000396000f3fe608060405234801561001057600080fd5b506004361061004c5760003560e01c806360fe47b1146100515780636d4ce63c1461006d5780637fcaf6661461008b57806389ea642f146100a7575b600080fd5b61006b60048036038101906100669190610271565b6100c5565b005b6100756100cf565b60405161008291906102ad565b60405180910390f35b6100a560048036038101906100a0919061040e565b6100d8565b005b6100af6100f2565b6040516100bc91906104df565b60405180910390f35b8060008190555050565b60008054905090565b80600190805190602001906100ee929190610184565b5050565b60606001805461010190610530565b80601f016020809104026020016040519081016040528092919081815260200182805461012d90610530565b801561017a5780601f1061014f5761010080835404028352916020019161017a565b820191906000526020600020905b81548152906001019060200180831161015d57829003601f168201915b5050505050905090565b82805461019090610530565b90600052602060002090601f0160209004810192826101b257600085556101f9565b82601f106101cb57805160ff19168380011785556101f9565b828001600101855582156101f9579182015b828111156101f85782518255916020019190600101906101dd565b5b509050610206919061020a565b5090565b5b8082111561022357600081600090555060010161020b565b5090565b6000604051905090565b600080fd5b600080fd5b6000819050919050565b61024e8161023b565b811461025957600080fd5b50565b60008135905061026b81610245565b92915050565b60006020828403121561028757610286610231565b5b60006102958482850161025c565b91505092915050565b6102a78161023b565b82525050565b60006020820190506102c2600083018461029e565b92915050565b600080fd5b600080fd5b6000601f19601f8301169050919050565b7f4e487b7100000000000000000000000000000000000000000000000000000000600052604160045260246000fd5b61031b826102d2565b810181811067ffffffffffffffff8211171561033a576103396102e3565b5b80604052505050565b600061034d610227565b90506103598282610312565b919050565b600067ffffffffffffffff821115610379576103786102e3565b5b610382826102d2565b9050602081019050919050565b82818337600083830152505050565b60006103b16103ac8461035e565b610343565b9050828152602081018484840111156103cd576103cc6102cd565b5b6103d884828561038f565b509392505050565b600082601f8301126103f5576103f46102c8565b5b813561040584826020860161039e565b91505092915050565b60006020828403121561042457610423610231565b5b600082013567ffffffffffffffff81111561044257610441610236565b5b61044e848285016103e0565b91505092915050565b600081519050919050565b600082825260208201905092915050565b60005b83811015610491578082015181840152602081019050610476565b838111156104a0576000848401525b50505050565b60006104b182610457565b6104bb8185610462565b93506104cb818560208601610473565b6104d4816102d2565b840191505092915050565b600060208201905081810360008301526104f981846104a6565b905092915050565b7f4e487b7100000000000000000000000000000000000000000000000000000000600052602260045260246000fd5b6000600282049050600182168061054857607f821691505b60208210810361055b5761055a610501565b5b5091905056fea264697066735822122087546b25c59980ffc135faf3b0e8c0082a825360f8f5a94eff36926ea3a7ef8464736f6c634300080d0033",
  "immutableReferences": {},
  "source": "// SPDX-License-Identifier: MIT\npragma solidity 0.8.13;\n\ncontract Test {\n    uint256 number;\n    string str;\n\n    function get() public view returns (uint256) {\n        return number;\n    }\n\n    function set(uint256 _number) public {\n        number = _number;\n    }\n\n    function getString() public view returns (string memory) {\n        return str;\n    }\n\n    function setString(string memory _str) public {\n        str = _str;\n    }\n}\n",
  "sourcePath": "/Users/anthony/Documents/Perso/Development/blockchain/web3js/truffle/contracts/Test.sol",
  "compiler": {
    "name": "solc",
    "version": "0.8.13+commit.abaa5c0e.Emscripten.clang"
  },
  "schemaVersion": "3.4.7",
  "updatedAt": "2022-04-22T08:29:38.236Z",
  "networkType": "ethereum",
  "devdoc": {
    "kind": "dev",
    "methods": {},
    "version": 1
  },
  "userdoc": {
    "kind": "user",
    "methods": {},
    "version": 1
  }
}